:100000009EC30000D4C30000D2C30000D0C30000D0
:10001000CEC30000CCC30000CAC30000C8C30000A8
:10002000C6C30000C4C300000C94721F0C942E1FA2
:100030000C947D20BCC30000BAC30000B8C300000C
:10004000B6C30000B4C30000B2C30000B0C30000D8
:10005000AEC300000C945920AAC30000A8C300003E
:10006000A6C30000A4C30000A2C30000A0C30000F8
:100070009EC300009CC300009AC3000098C3000008
:1000800096C3000094C3000092C3000090C3000018
:100090008EC300008CC300008AC3000088C3000028
:1000A00086C3000084C3000082C3000005010980EC
:1000B000A101850319012AB700150126B700950192
:1000C00075108100C0050C0901A101850419012AE0
:1000D000A002150126A002950175108100C005013E
:1000E0000906A1018506050719E029E71500250184
:1000F0009508750181020507190029EF15002501F2
:1001000095F075018102050819012905950575010C
:100110009102950175039101C00660FF0961A1017B
:100120000962150026FF00952075088102096315F4
:100130000026FF00952075089102C005010906A15F
:1001400001050719E029E7150025019508750181CA
:10015000029501750881010507190029FF15002680
:10016000FF0095067508810005081901290515008D
:100170002501950575019102950175039101C00056
:10018000000000000000000000000000000000006F
:10019000000000000000000000000000000000005F
:1001A0000000007E0F00D4FFFFFFC70000007800B2
:1001B000000000000000002A2B28000000000000C2
:1001C0000000000000000000000029000000002CDA
:1001D0001E3420212224342627252E362D37382779
:1001E0001E1F202122232425263333362E37381F85
:1001F0000405060708090A0B0C0D0E0F1011121347
:100200001415161718191A1B1C1D2F3130232D35E4
:100210000405060708090A0B0C0D0E0F1011121326
:100220001415161718191A1B1C1D2F3130354C1EAA
:100230000F0500047F3F1F643214643214783C1EA3
:100240001E140A0500010101010101010101020260
:100250000202020202020203030303030303030474
:10026000040404040404050505050506060606063F
:10027000070707070708080808090909090A0A0AF9
:100280000B0B0B0C0C0C0D0D0D0E0E0E0F0F0F109B
:100290001011111112121313141415151616171725
:1002A000181819191A1A1B1B1C1D1D1E1E1F202091
:1002B000212222232424252626272829292A2B2CDB
:1002C0002D2D2E2F30313232333435363738393AFE
:1002D0003B3C3D3E3F404142434445464748494AF6
:1002E0004C4D4E4F50515354555658595A5B5D5EC4
:1002F0005F616264656668696B6C6D6F707273755F
:1003000077787A7B7D7E8082838587888A8C8E8FC2
:1003100091939596989A9C9EA0A2A3A5A7A9ABADF0
:10032000AFB1B3B5B7BABCBEC0C2C4C6C9CBCDCFDE
:10033000D1D4D6D8DBDDDFE2E4E7E9EBEEF0F3F58C
:10034000F8FAFDFFFFAA7F55402223252628292AF7
:100350002C2D2F3032333536383A3B3D3E40424328
:100360004547494A4C4E5051535557595A5C5E6067
:1003700062646668696B6D6F71737577797B7D7F79
:1003800081838587898A8C8E90929496989A9C9E78
:100390009FA1A3A5A7A8AAACAEAFB1B3B4B6B8B994
:1003A000BBBCBEBFC1C2C3C5C6C7C9CACBCCCDCEFC
:1003B000D0D1D2D2D3D4D5D6D7D7D8D9D9DADADBDF
:1003C000DBDBDCDCDCDCDCDDDDDDDDDCDCDCDCDC6B
:1003D000DBDBDBDADAD9D9D8D7D7D6D5D4D3D2D2AA
:1003E000D1D0CECDCCCBCAC9C7C6C5C3C2C1BFBE92
:1003F000BCBBB9B8B6B4B3B1AFAEACAAA8A7A5A3FD
:10040000A19F9E9C9A98969492908E8C8A898785BB
:1004100083817F7D7B79777573716F6D6B6968669A
:100420006462605E5C5A5957555351504E4C4A496C
:1004300047454342403E3D3B3A3836353332302F14
:100440002D2C2A29282625232235001E001F0020B6
:100450000021002200230024002500260027002D73
:10046000002E0000002A002B0014001A00080015BE
:100470000017001C0018000C00120013002F0030A1
:100480000000003100390004001600070009000ACE
:10049000000B000D000E000F0033003400000000C0
:1004A000002800E10000001D001B000600190005E7
:1004B00000110010003600370000003800E5000091
:1004C00000E000E300E20000000000000000000087
:1004D000002C00000021520000E600E700E40001CB
:1004E0000020782178277801000100010001000137
:1004F00000010001000100010001000100010001F4
:100500000001000100007C01000100010001000168
:1005100000010001000100000001000100010001D4
:1005200000010001000100010001000100010001C3
:1005300000010001000000010001000100010001B4
:1005400000010001000100010001000100010000A4
:100550000001000100010001000100010000000095
:100560000000000000000001000000010000000188
:100570000001000100010001000100010001000173
:100580000001000100010001000100010001000163
:100590000001000100010001000100010001000153
:1005A0000001000100010001000100010000000144
:1005B0000001000100010001000100010001000133
:1005C0000001000100010001000100000001000124
:1005D0000001000100010001000100010001000113
:1005E0000001000100000001000100010001000104
:1005F00000010000000000000000000000010000F9
:1006000000010000000100010001000100010001E3
:1006100000010001000100010001000100010001D2
:1006200000010001000100010001000100010001C2
:1006300000010001000100010001000100010001B2
:1006400000010000000100010001000100010001A3
:100650000001000100010001000100010001000192
:100660000000000100010001000100010001000183
:100670000001000100010001000100000001000173
:100680000001000100010001000000000000000066
:100690000000000100000001000000010001000155
:1006A0000009025B00030100A0FA09040000010335
:1006B0000101000921110100012244000705810305
:1006C00008000109040100020300000009211101D2
:1006D0000001222200070582032000010705030311
:1006E000200001090402000103000000092111019A
:1006F0000001226D000705840320000112010002A1
:10070000000000084B4456450200010200011E0390
:100710004500610067006C0065002F00560069000D
:1007200070006500720020005600320000000A03CD
:100730004400750063006B000000040309041124E9
:100740001FBECFEFDAE0DEBFCDBF04B603FE18C098
:100750008091330390913403A0913503B091360317
:100760008730904BA740B04B59F41092330310924E
:1007700034031092350310923603E0E0F8E3099554
:1007800023E0A6E9B1E001C01D92A333B207E1F76F
:1007900011E0A0E0B1E0E0E3F0E502C005900D92C9
:1007A000A639B107D9F70E94A4200C946C2728CC55
:1007B000482F209127039091EE0257E0291302C0A1
:1007C00080E0089530E0529FF001539FF00D112416
:1007D000E151FD4F8181681306C08081481303C039
:1007E00085818111EECF2F5F3F4F2770E7CFE8ED76
:1007F000F0E080818E7F80831092E2001092DA0018
:100800001092E100A0EEB0E08C9181608C93808129
:100810008F77808319BCA7EDB0E08C918E7F8C938D
:1008200080818F7E80831092D90208952091E40008
:100830003091E50095E6A9012091EC00822F8170AE
:1008400020FF06C08091E80080FF06C080E0089588
:100850002091E80022FD1AC08091E402882389F0EB
:10086000853089F08091EB0085FD0FC02091E40078
:100870003091E50042175307F9F29150E1F684E018
:10088000089582E0089583E0089581E008958091BD
:10089000E60287FF13C08091E80082FF06C08091C6
:1008A000E8008B778093E80004C08091E402811116
:1008B000F2CF08958091E4028823D9F38091E80073
:1008C00080FFF8CF8091E8008E77ECCF982F90933F
:1008D000E900242F762F50E0891731F07091EC0059
:1008E0002091ED005091F00021FD07C09F5F9730EF
:1008F00071F78093E90081E008953091EB003E7F2D
:100900003093EB003091ED003D7F3093ED0030915E
:10091000EB0031603093EB007093EC002093ED001E
:100920005093F0002091EE0027FDE0CF80E0089585
:10093000B0E0A0E0EEE9F4E00C94EE25C8EDD0E0E4
:1009400088818F7E8883E7EDF0E0808181608083FD
:1009500084E082BF81E08093D90288818E7F888382
:1009600002EE10E0F80110821092DA0081EEC82E3B
:10097000D12CF601108288818F77888388818068E6
:10098000888388818F7D888319BC1092E40210923D
:10099000E5021092E3021092E20290EEE92EF12CB1
:1009A000F70180818B7F808388818160888342E02A
:1009B00060E080E08BDFF60180818E7F8083F8012C
:1009C000808181608083808188608083F70180815D
:1009D0008E7F8083888180618883CDB7DEB7E8E031
:1009E0000C940A26FC018091EC029091ED0286178E
:1009F0009707A0F06115710529F49091E8009E77A2
:100A00009093E80090E06115710551F4911108C0D0
:100A10008091E80082FF34C080E00895BC01F2CFED
:100A20008091E4028823C1F18530C1F18091E80012
:100A300083FD30C08091E80082FDEACF8091E8001C
:100A400080FFE1CF8091F3002091F200382F6115F3
:100A5000710519F02830310558F091E02830310542
:100A600009F090E02091E8002E772093E800CBCFAA
:100A700081918093F100615071092F5F3F4FE7CF63
:100A80008091E402882341F0853041F08091E800B4
:100A900083FFBECF81E0089582E0089583E008954A
:100AA000089508952FB7F8948091D5029091D602B9
:100AB000A091D702B091D8022FBF08958091200154
:100AC0000895909121019130D1F49091D20297FF35
:100AD00016C0E82FE695E695E695EE31E0F4F0E0F5
:100AE000E056FE4F282F277081E090E001C0880F6C
:100AF0002A95EAF780959281892382830895EAE90D
:100B0000F1E09191891303C0DF0111971C9291E0EC
:100B1000E03AF907B1F70895909121019130C1F4BD
:100B20009091D20297FF14C0E82FE695E695E695DE
:100B3000EE31F8F4F0E0E056FE4F877021E030E04F
:100B400001C0220F8A95EAF78281822B8283089561
:100B5000AAE9B1E0EFEF90E02D91821751F0EF3F5D
:100B600019F4211101C0E92F9F5F9630A9F7EF3FDB
:100B700009F408950E2E000CFF0BE856FE4FE6CF49
:100B8000A3E0B0E0E6ECF5E00C94F4252091D0026F
:100B90003091D10228173907B1F09093D102809398
:100BA000D002E091CE02F091CF02309761F0008444
:100BB000F185E02D309739F024E029839B838A83E7
:100BC000CE01019609952396E2E00C941026A3E04D
:100BD000B0E0EDEEF5E00C94F4252091CC023091DC
:100BE000CD0228173907B1F09093CD028093CC0243
:100BF000E091CE02F091CF02309761F00084F18550
:100C0000E02D309739F023E029839B838A83CE013E
:100C1000019609952396E2E00C941026E091CE020D
:100C2000F091CF02309739F00190F081E02D3097AC
:100C300011F00995089580E00895FC01EE0FFF1F63
:100C4000E80FF91FE956FD4F618340832283089521
:100C5000569A0895CF93DF9380912B0380FD0BC0AC
:100C6000D0E0C0E020E040E060E0CE01E6DF219689
:100C7000C131D105B9F70E945C0FDF91CF91089582
:100C8000FF920F931F93CF93DF93182F062FF42E0D
:100C900080912B0380FF0CC0D0E0C0E02F2D402FAF
:100CA000612FCE01CADF2196C131D105B9F7D2DF5C
:100CB000CDB7DEB7E5E00C940D26CF93DF93EC01C2
:100CC00040912E039C81892F817090FD842F692F84
:100CD000627091FD642F92FF40E0D2DF8C8190E042
:100CE0000196877099278C83DF91CF910895809129
:100CF0002B03982F9C7F29F48370846080932B03AF
:100D000008958C3AE8F38370886AF8CFB0E0A0E0E9
:100D1000ECE8F6E00C94EE259B01E82FF0E0EC5BAC
:100D2000FD4F311109C0E4918E2F7E2F6E2FCDB76C
:100D3000DEB7E8E00C940A26E32EF12CE491FE2FB6
:100D40000E2F10E046E0649FC0011124CFEFD0E0E9
:100D5000BE010E94A425AB01822F90E0880F991F4D
:100D600025E5249FB001259F700D1124861B970B4C
:100D7000982F990F980FBE016E197F09609FD001BF
:100D8000619FB00D709FB00D11248B2F399F900182
:100D90001124232F3327BE01621B730B609F900128
:100DA000619F300D709F300D11246E01C91AD1085A
:100DB000CE9CB001CF9C700DDE9C700D1124672F6E
:100DC0007727C61BD70BC09F7001C19FF00CD09F27
:100DD000F00C11247F2D42305105A1F050F4411543
:100DE000510509F4A3CF4130510581F07B2F832FAA
:100DF0009DCF4430510569F080F04630510509F42B
:100E000095CFF4CFEB2F8F2D7F2F90CF7E2FE32F19
:100E10008DCFEF2D7B2F8F2F89CF732FEB2FFBCF14
:100E2000CF93762FC22F682F842F70DF472F282F64
:100E30008C2F90E002DFCF9108950F931F93CF93F3
:100E4000DF938C01D0E0C0E0F801948160912D0324
:100E500080912C03C830D105BCF49923B9F09E01D0
:100E600040912E03DDDF2196C131D10569F7F2DE15
:100E7000F801848190E00196817099278483DF9145
:100E8000CF911F910F910895992349F39E0140E05E
:100E9000E9CFB0E0A0E0EFE4F7E00C94EA25EC0144
:100EA0004C81042F10E09801D8010E945D279B011E
:100EB000AC010E942B274B015C01E0E2F0E0E01B5B
:100EC000F10BA5E5B0E0AC019B010E942B276B0163
:100ED0007C019F01DF010E94D8259B01AC010E948B
:100EE00035279B01AC01280D391D4A1D5B1DC7012B
:100EF000B6010E943B27022F822F90E02A3278F51C
:100F000043E0249F9001112435952795122F1095C9
:100F1000F12CE12C85E5D82ED01A8D2DE1FC802F07
:100F20009701412F60912D037BDF5FEFE51AF50AF2
:100F300081E1E816F10489F78DDE9C8181E0992337
:100F400019F0903219F48FEF80931E0180911E01E9
:100F5000890F8C83CDB7DEB7ECE00C94062625E52F
:100F600030E0A901481B590BCA019A01220F331F17
:100F7000280F391F37FFC8CF2F5F3F4FC5CFCF9303
:100F8000DF93D0E0C0E020E040E060E0CE0155DE3D
:100F90002196C131D105B9F7D0E0C0E0809140027F
:100FA000082E000C990BC817D9075CF180911D0120
:100FB000082E000C990B8C179D071CF19E01409187
:100FC0002E0360912D0380912C032ADF2196C131DD
:100FD000D10521F73FDE80911C0190914002980FCE
:100FE0009093400220911D01280F20931D0112169D
:100FF00014F490311CF0819580931C01DF91CF9106
:10100000089520E040E060E0CE0117DEDFCFB0E0E1
:10101000A0E0EDE0F8E00C94EF25FC018281FF24D4
:10102000FA9480FD02C0FF24F394D0E0C0E091E187
:10103000D92E20E040E060E0CE01FFDD04E010E0CA
:10104000E12C80913F028E0D82319CF16D2D0E942A
:101050009725892F082E000C990BC817D90789F4FA
:1010600080912E03809FA001819F500D11245595E2
:101070004795559547959E0160912D0380912C03CE
:10108000CFDEEF0C01501109E1F62196C131D105F7
:1010900081F6E0DD80913F02F1E0FF1210C0811186
:1010A0000CC080E180933F02CDB7DEB7E7E00C943F
:1010B0000B2687FFCFCF8F5ECDCF8150F3CF90E04F
:1010C0000196BE010E94B825EDCFFF920F931F93AA
:1010D000CF93DF93EC01F12C10E000E08C819801BC
:1010E00040912E0360912D038F0D9ADE0F5F1F4FED
:1010F0008FE0F80E0131110589F7ACDD9A818C8102
:1011000090FF07C08F5F8C83CDB7DEB7E5E00C940E
:101110000D268150F8CF762F90912B0390FF08C0B9
:10112000682F842FF3DD962F672F482F892FA8CDA6
:101130000895CF93DF93EC01EBE2F3E0438162810A
:101140008C81E9DF8C818F5F8C83DF91CF91089553
:10115000CF93DF93EC01EC81F0E0E75BFC4F44912F
:10116000EBE2F3E062818181D6DF8C818F5F8C833B
:10117000DF91CF91089580E008959091D20292FF7F
:1011800010C041E0282F2471243009F040E031E004
:10119000282F2871283009F030E0431711F02CE097
:1011A000822793FF10C041E0282F2471243109F0D9
:1011B00040E031E0282F2871283109F030E0431752
:1011C00011F02CE082273091D30230FF10C051E0A3
:1011D000282F2171213009F050E041E0282F28719B
:1011E000283009F040E0541711F029E0822731FF40
:1011F00010C041E0282F2171213109F040E031E099
:10120000282F2871283109F030E0431711F029E028
:10121000822794FD877E089582389105B9F1B0F454
:101220008133910509F47DC048F48932910509F4B0
:101230006DC08A32910509F47BC00895853391050C
:1012400009F45FC08933910509F10895833E910542
:10125000D9F138F4803E910529F1823E910579F16A
:101260000895863E9105D9F1873E910509F43EC067
:10127000843E910541F52091D30221FF24C0809145
:10128000D20284FD19C087EE90E008952091D20229
:10129000237009F05AC02091D30223FF14C089E2C1
:1012A00090E008952091D20220FD38C03091D30201
:1012B00030FF09C024FF43C090E080E008952091F2
:1012C000D20222FDF7CF08952091D20222FD3AC02A
:1012D0003091D30230FD39C024FFF5CFEDCF2091FE
:1012E000D20223FFF0CF24FDE7CFCDCF2091D20251
:1012F00023FD2EC03091D30231FFEECF84EE90E07B
:1013000008952091D20225FFDECFC9CF2091D202CD
:1013100025FD21C02091D30223FFD5CF89E390E0A2
:10132000D2CF2091D20226FFCECF8AE290E008955C
:101330002091D20226FFC7CF81E390E0089583EE8B
:1013400090E0089582EE90E0089580EE90E0089598
:1013500086EE90E0089585E390E008951F93CF9383
:10136000DF935ADFEC01C11580E5D807F0F5C11510
:1013700080E4D80708F09AC0C03ED10520F5CD3CE6
:10138000D10508F082C0C83AD10578F4C53AD10534
:1013900008F073C0C130D10519F1209709F1C430AC
:1013A000D105F0F4D0E0C0E01BC0C33CD105D0F7BC
:1013B000C85AD0E0CC0FDD1FCA5DDE4F0990D8813E
:1013C000C02DD4640DC0C11580E2D80708F0CDC08F
:1013D000C11581E0D80708F05AC0C83ED10510F702
:1013E000CE01DF91CF911F910895C03682E5D807D5
:1013F00018F5C03482E5D80708F068C0C03282E52D
:10140000D80708F05CC0C11582E5D80708F493C07E
:101410002C2F2695269580E2289F900111248C2F51
:101420008370C1E0D0E002C0CC0FDD1F8A95E2F7E7
:10143000C22BD32BDD68D4CFC03A82E5D80760F445
:10144000C03882E5D80708F456C0CF71D0E0DC2F51
:10145000CC27C46FD06AC4CFC03C82E5D80708F45B
:101460005FC0C03E82E5D80708F09CCFDC2FCC27B8
:10147000CC27DF71C06FD06AB3CFC55AD0E0CD5D45
:10148000DE4FC881D0E0D064ABCFD065A9CF8D2F1F
:1014900074DE182FCE019927BFDEC12FD0E0DC2FDC
:1014A000CC27CC27DF71C82BD92B9ACFCE01992717
:1014B000B3DECC27DF70C82BD92BD06A91CFCF7188
:1014C000D0E0DC2FCC27C16FD06A8ACF2C2F269595
:1014D0002695277080E2289F900111248C2F83701D
:1014E000C1E0D0E002C0CC0FDD1F8A95E2F7C22B2D
:1014F000D32BDC6875CF2C2F26952695277080E29C
:10150000289F900111248C2F8370C1E0D0E002C08D
:10151000CC0FDD1F8A95E2F7C22BD32BDA6860CFA0
:101520008C2F8F712ADEC82FD0E0DC2FCC27CC2760
:10153000DF71D06255CF8C2F8F711FDE55E0D695AD
:10154000C7955A95E1F7CF70D0E0DC2FCC27282F34
:1015500030E084FF06C044E0220F331F4A95E1F7D4
:101560003327C22BD32BD0693BCF8D2F8F7105DE54
:10157000182FCE01992750DEC12FD0E0DC2FCC27C9
:10158000CC27DF71C82BD92BD4CF80959091120234
:101590009823909312020895809112029091E9018C
:1015A000892B9091E801992391F0892B9091210149
:1015B000913071F49091D20297FF0AC09EE122EA25
:1015C00031E040E0915040F441111092E80108955B
:1015D00096E02AE931E0F5CFF90151919F015523B9
:1015E00089F34F5FEFCF809127039091EE0298131C
:1015F00001C008958F5F8770FACF292F953078F555
:101600008F3068F590E03FE0239F800D911D1124FD
:10161000682F677023E0969587952A95E1F7FC017E
:10162000EE0FFF1FE80FF91FEE53FE4F50E040E0B2
:1016300080E0219130E0062E02C0369527950A946D
:10164000E2F721703327042E01C0220F0A94EAF733
:10165000822B4F5F5F4F4330510559F7089580E06B
:101660000895292F953098F58F3088F590E03FE068
:10167000239F800D911D1124282F277041E001C068
:10168000440F2A95EAF723E0969587952A95E1F786
:10169000FC01EE0FFF1FE80FF91FEE53FE4F30E085
:1016A00020E070E05191DF011197CB01022E02C0C2
:1016B000969587950A94E2F7817081958527842312
:1016C00085278C932F5F3F4F2330310559F70895BD
:1016D0008093200208959091200221E030E0F901EA
:1016E00001C0EE0F8A95EAF7D90102C0AA0FBB1F0D
:1016F0006A95E2F7EA2B01C0220F4A95EAF7892F93
:101700008E23E81303C0292B822FE2CF20952923B3
:10171000FBCF21E030E001C0220F8A95EAF7209547
:10172000809120028223D4CF9091E7018095892374
:101730008093E701282F277061F4891751F0909169
:10174000D30292FF06C0869586958695E2DF1092B9
:10175000E701089521E030E001C0220F8A95EAF701
:1017600080912002822BB4CF8093130208958130A0
:1017700051F0882329F0823041F0833049F00895F8
:10178000299A2B9A08952998FCCF299A2B98089585
:101790002998FCCF282F220F220F220F909196021A
:1017A0009770922B90939602987F21E009F420E0A5
:1017B0009091960220FB90F990939602D8CF269AAA
:1017C0002E9887B1806C87B988B18F7388B980B340
:1017D000836080BB81B38C7F81BB08958AB1806DAB
:1017E0008AB98BB18F7A8BB95F9A84B18F6184B9D2
:1017F00085B1817F85B985B1816185B96E9A769809
:1018000008950F93CF93DF93CBE2D3E048815981C2
:101810006A817B8188E090E00E94F32628813981EB
:101820004A815B816C817D818E819F8100E20E9473
:101830003626622F83E290E00E94E126DF91CF916D
:101840000F910895B0E0A0E0E8E2FCE00C94E925F7
:10185000182FD62E042FC22E90912B0390FF21C05B
:10186000E92FE695E695AE2FB0E0A45ABE4F8C91D5
:1018700080933D029C7F9430C9F4612F7D2D842F8D
:1018800045DA962F672F482F892FFAD910932C030A
:10189000D0922D0300932E03CC2019F08BE293E01D
:1018A000B0DFCDB7DEB7EDE00C940526823019F439
:1018B00000912E03EBCF863019F410912C03E6CF64
:1018C0008930D9F3893111F7E9518E2F8170782E43
:1018D000E695F0E0EC5BFC4FE491CE2FD0E0B12C2C
:1018E000A12CF12CE12C81E1882E912CC501B401B1
:1018F0000E94A425812F711010C0860F9701402FE0
:101900006D2D8EDA8FEFE81AF80AAC0EBD1E81E15C
:10191000E816F10459F79ED9B9CF861BEFCFEBE259
:10192000F3E0438121E1421B08F440E021E06281C1
:10193000818188CFEBE2F3E0438121E1420F08F49B
:101940004FEF21E0628181817DCFEBE2F3E06281A4
:1019500021E1621B08F460E021E04381818172CFC4
:10196000EBE2F3E0628121E1620F08F46FEF21E026
:101970004381818167CFEBE2F3E0818121E0438104
:10198000628188505FCFEBE2F3E0818121E0438107
:101990006281885F57CF80912F03882319F081508F
:1019A00080932F038BE293E02CCF80912F03833021
:1019B00018F48F5F80932F038BE293E022CFEBE24A
:1019C000F3E085E0808311828FEF8283838314822A
:1019D000CF0117CF1F93CF93DF93122F8430E0F402
:1019E0006530D0F44F30C0F4C42FD0E0CC0FDD1FF1
:1019F0009EE1699FC00DD11D112496E9899FC00DFC
:101A0000D11D1124632FCE0189960E94E126612FFA
:101A1000CE018A960E94E126DF91CF911F91089511
:101A2000AF92BF92CF92DF92EF92FF921F93CF932C
:101A3000DF9389E4C82E84E0D82ED0E07601C0E0A0
:101A400013C0F50125913491412F6C2F8D2FC2DFEA
:101A500082E0A80EB11C1F5F1F3099F78EE1E80EDF
:101A6000F11CCF5FC53019F0570110E0EACFDF5FFE
:101A700086E9C80ED11CD43009F7DF91CF911F91B0
:101A8000FF90EF90DF90CF90BF90AF900895FC0152
:101A9000608186E090E00C94E1268091960280FFC0
:101AA00008C08E7F8093960286E992E0F0DF80E0A6
:101AB0005ECE08958091960280FD11C08160809372
:101AC0009602813019F489E08093960286E992E0CB
:101AD000DEDF8091960286958695869548CE08959C
:101AE0004F925F926F927F928F929F92AF92BF922E
:101AF0000F93CF93DF9388E090E00E94C8262B01DC
:101B00003C01CBE2D3E0688359828A837B821C82CA
:101B10001D821E821F8283E290E00E94C026282F31
:101B200030E040E050E060E070E080E090E000E213
:101B30000E941B26242935294629572928833983C1
:101B40004A835B836C837D838E839F83DF91CF91F8
:101B50000F91BF90AF909F908F907F906F905F900C
:101B60004F900895CF93DF9385E290E00E94C026C6
:101B7000D82F86E290E00E94C026C82F87E290E02E
:101B80000E94C026D53259F4C83049F491E087311B
:101B900009F090E0892F8170DF91CF91089580E066
:101BA000FACF9B012F573D4F6F377140810591054B
:101BB00018F4C9010C94C02680E00895CF92DF92FA
:101BC000EF92FF92CF93DF93EC01C880D980EA8037
:101BD000FB80C701B601E5DF9FEFC91AD90AE90A00
:101BE000F90AC882D982EA82FB82DF91CF91FF9005
:101BF000EF90DF90CF9008950F931F93CF93DF93D3
:101C0000843030F5653020F54F3010F5C42FD0E02A
:101C1000CC0FDD1F2EE1629FC00DD11D112436E9CE
:101C2000839FC00DD11D1124CE0189960E94C0262C
:101C3000082F10E0102F0027CE018A960E94C026A0
:101C40009801282BC901DF91CF911F910F91089521
:101C500090E080E0F8CF462F753030F46F3020F4FC
:101C6000843010F4672FC8CF90E080E00895CF92C1
:101C7000DF92FF920F931F93CF93DF936C0100913C
:101C8000200280911302082BC3E0D0E010E0FC2E6C
:101C9000C8010C2E02C0959587950A94E2F780FD45
:101CA0000CC02197A0F7F12C8F2DDF91CF911F91C0
:101CB0000F91FF90DF90CF900895B6018C2FCBDF6E
:101CC0004DDB019771F3F0CFCF93DF93EC01CFDFC2
:101CD000BE01C1DF43DBDF91CF910895FC01248178
:101CE0002223B9F080819181EFDF92959F70963029
:101CF00091F058F4925F9F70923058F4803F19F041
:101D000030F4883E30F481E008959A5FF4CF843F48
:101D1000D1F380E00895883EB0F3813FD1F7F3CF4F
:101D2000A6E0B0E0E6E9FEE00C94F32526E0FC0135
:101D3000DE01119601900D922A95E1F7FC012581B3
:101D400089819A81222381F0662371F090DF182F18
:101D5000682F89819A8185DC69817A81812F7BDF77
:101D60002696E3E00C940F2648DC182FF5CF86E08A
:101D700090E00E94C0268093960282FD06C08DE10D
:101D80008093960286E992E082DE8091960280320C
:101D900020F0877088618093960290919602892F37
:101DA000817090FF04C0892F869586958695DFCC3B
:101DB0000F931F93CF93DF938B01EA019091E4027D
:101DC000943061F58093E9008FEF9091E8008150A5
:101DD00095FD06C095ED9A95F1F700008111F5CFBC
:101DE0008091E80085FF1AC00E941604811111C07D
:101DF0008091E80085FD06C08091E8008E77809391
:101E0000E800F2CFF80181918F018093F1002197D2
:101E100079F78091E8008E778093E800DF91CF9189
:101E20001F910F91089543E050E0BC0184E0C0CFC2
:101E300040E250E0BC0184E0BBCFCF93DF93EC01E4
:101E400048E050E0BC0181E0B3DF88E0FE01AAED8C
:101E5000B2E001900D928A95E1F7DF91CF9108955C
:101E6000603229F440E250E0BC0182E0A1CF089545
:101E700081E08093E00080E28093D8001092C90056
:101E80008FE19EE40197F1F700C0000087E090EB3E
:101E9000DC018093330390933403A0933503B09314
:101EA000360388E19CE00FB6F894A8958093600013
:101EB0000FBE90936000FFCF3BB13F7B2BB12064FE
:101EC0004FB7F89487E992E0FC015191CF0168E0A7
:101ED0002BB9000000C057FF3BB9550F000000C0F0
:101EE00000C000C03BB900C06A9591F7F2E08A3C9F
:101EF0009F0751F74FBF8FE594E00197F1F700C0BE
:101F000000000895F89428E098E08FEF87FF1DC047
:101F10005C9A0000000000000000000000000000CB
:101F20005C980000000000000000000000000000BD
:101F30000000880F915051F7215031F7789485E2D5
:101F40008A95F1F7000081E008955C9A0000000096
:101F50005C9800000000000000000000000000008D
:101F60000000000000000000000000000000E1CFC1
:101F7000AF92BF92DF92EF92FF920F931F93CF9396
:101F8000DF93D0E0C0E001E010E04C2FEC2FE150F7
:101F9000EE3028F4F0E0E259F84D0C94CB25469A47
:101FA00080E18A95F1F799B189B139B129B1917080
:101FB0008270892B3470832B2870822B4D998EC0B0
:101FC00090E0892B41118CC062998AC094E0892BE2
:101FD00058010C2E02C0AA0CBB1C0A94E2F7F09028
:101FE0000401E6E1F2E030E020E0082E000C990B5D
:101FF00041915191BA016A217B21DD24D394672B51
:1020000009F4D12CB801022E02C0660F771F0A9482
:10201000E2F768237923EE24E394672B09F4E12C9B
:10202000DE1451F0BF01625071094A255B25DB01C6
:102030004D935C9345E0F42E2F5F3F4F25303105E3
:10204000B9F6F0920401BBDB2196CF30D10509F03F
:102050009CCFFF2061F0FA94F0920401FF2009F474
:1020600041C08FE99FE00197F1F700C0000081E0D7
:10207000DF91CF911F910F91FF90EF90DF90BF9074
:10208000AF900895469A889A8BCF469A899A88CFBE
:10209000469A81B3836081BB83CF88B1806C88B955
:1020A0007FCF88B1806C88B9EECF88B1806C88B959
:1020B000EDCF88B1806C88B9ECCF2E9A71CF2E9A73
:1020C000E2CF2E9AE3CF2E9AE4CF2E9A479A68CF8A
:1020D0002E9A889AFBCF2E9A899AF8CF90E171CFE9
:1020E00090E075CF809116029091170290932E0286
:1020F00080932D02809118029091190290933002E2
:1021000080932F0280911A0290911B0290933202C9
:102110008093310280911C0290911D0290933402B1
:102120008093330280911E0290911F029093360299
:10213000809335029CCFA0E1B0E0E1EAF0E10C949D
:10214000E625CE0101965C0180E1F50111928A95A8
:10215000E9F708E110E091E8892E92E0992E2FE747
:10216000422E55245394612C712C6201F1E14F16DB
:102170005104610471042CF080E1C82ED12CE12CB3
:10218000F12CA601B401C5010E94D2268C0C9D1C25
:102190000D2C000CEE08FF084C185D086E087F0837
:1021A0000150110911F76096E0E10C9402266FEFDF
:1021B00085E290E00E94E1266FEF86E290E00E94C7
:1021C000E1266FEF87E290E00E94E12660E088E27E
:1021D00090E00E94E12624DCAEDF65E285E290E03B
:1021E0000E94E12668E086E290E00E94E12667E135
:1021F00087E290E00C94E126B0E0A0E0E2E0F1E1BB
:102200000C94E825FC018280648081E08483E9E409
:10221000F3E09490E8ECF3E0E49100912E0306954E
:10222000015810E0000F111F012F1127C1E4D2E067
:10223000D12CC12CAA24AA94B12C77247A94E91920
:10224000EE2EF12C82E0881530F080912C038883EB
:1022500080912D038983611017C01B821A82960119
:102260004A81698188810E9410078FEFC81AD80AB5
:10227000259681E1C816D10429F70E942A06CDB718
:10228000DEB7EEE00C9404268B818823E9F08150C0
:102290008B83879DC00111246C8170E00E94A4256E
:1022A000FB01FF27E75BFC4F8491E82FE919E79DCD
:1022B000C0011124B7010E94A42580912E03689FBC
:1022C000B00111247A83CBCF0E949826B5010E94D9
:1022D000B825801791070CF0C2CF82E0881588F4EA
:1022E0000E949826B5010E94B82588830E949826EE
:1022F00020912D032695622F70E00E94B825280FAB
:1023000029831A8280912E03893C20F088EC8C83EB
:102310008B83A5CF8431D8F784E1F9CF90912B033B
:1023200090FF25C09370811123C0946090932B037C
:10233000662319F08BE293E064DA60912B036695D3
:10234000669570E04BE050E081E191E00E94A626A6
:10235000892BB1F010923E0281E080933A0220E096
:1023600040912E0360912D0380912C036BCA089538
:102370008B3210F0986ADACF880F880F982BD6CF5F
:1023800081E080933E020E94520590933802809330
:102390003702E2CF80912B0386958695815009F410
:1023A0008AE261E0BBCF80912B03869586958F5F93
:1023B0008B3208F081E061E0B1CFA1E0B0E0E3EE64
:1023C000F1E10C94F42563EE7EEF90E080E00E9452
:1023D000FB2660E082E090E00E94E12681E08093AD
:1023E000130261E083E090E00E94E12660E074E186
:1023F00084E090E00E94FB261982CE01019647DB23
:10240000DEDAD5DE40E050E0BA018FE090E00E94D5
:10241000F32640E050E0BA0183E190E00E94F32609
:102420002196E2E00C9410269091D30292FB222791
:1024300020F9281771F080FB92F99093D3026091F4
:10244000D2027091D30284E090E00E94FB2682E0E9
:102450006BC9089580912101813061F58091D2028C
:1024600087FF28C099D88093A10140E250E06AEE2E
:1024700071E080EA91E00E94B326892BD1F080E2DE
:10248000E0EAF1E0AAEEB1E001900D928A95E1F761
:10249000E091CE02F091CF02309759F00480F5819F
:1024A000E02D309731F086E08093A00180EA91E042
:1024B0000995089571D88093980148E050E06AE04A
:1024C00072E088E991E00E94B326892B91F388E0BD
:1024D000E8E9F1E0AAE0B2E001900D928A95E1F717
:1024E000E091CE02F091CF02309719F30280F38190
:1024F000E02D3097F1F288E991E0DACF882311F0EE
:1025000044D8A8CF0895882331F090911202982BD7
:10251000909312029FCF0895882319F19CEF980F92
:10252000913A18F40E94610595CF90E2980F983087
:1025300048F4877091E001C0990F8A95EAF7892FD6
:1025400024D8F2CF9BE5980F933020F490E080E000
:102550000C94E705885A8B3120F490E080E00C94CD
:10256000C005089510921202809121018130B1F4CA
:102570008091D20287FF12C0E2EAF1E08EE1DF0132
:102580001D928A95E9F790E080E00E94E70590E0CF
:1025900080E00E94C0051092E9015CCFEAE9F1E019
:1025A00086E0EDCFAAE2B0E0E8EDF2E10C94F3258D
:1025B00086EE92E02091F100DC012D93CD01B2E096
:1025C0008E3E9B07B9F78091E702833009F472C011
:1025D000B8F4813009F449C0823009F4B6C0809162
:1025E000E80083FF3EC18091E6029091E7029A30B5
:1025F00008F037C1E92FF0E0E458F84D0C94CB25F2
:102600008A3009F491C08B3009F471C0893039F7F0
:102610008091E602813219F78091EA029091EB02F3
:10262000009711F00297D9F68091E800877F809398
:10263000E8008091E80082FF38C09091F30080911B
:10264000F200029731F48091F100813011F0863070
:1026500021F48091F100809320018091E8008B7734
:102660008093E8000E944704BACF8091E602813A45
:1026700009F0B5CF8091E800877F8093E8008091D2
:10268000EA029091EB02892B61F468E08AED92E016
:1026900070E00E94F2048091E8008B778093E8005C
:1026A0009ECF60E090E080E0F3CF8091E402811162
:1026B000C0CF95CF8091E602813A09F090CF80910A
:1026C000EA029091EB02892B09F089CF8091E80012
:1026D000877F8093E8008091E80080FFFCCF8091A5
:1026E00021018093F1008091E8008E77B9CF80912D
:1026F000E602813209F073CF8091EA029091EB02F9
:10270000892B09F06CCF8091E800877F8093E800E7
:102710000E94470481E09091E802911101C080E09D
:10272000809321011FDF5BCF8091E602813209F0A7
:1027300056CF8091E800877F8093E8000E9447048D
:102740008091E90280931F014ACF8091E602813A8D
:1027500009F045CF8091E800877F8093E800809161
:10276000E80080FFFCCF80911F01BBCF803899F03B
:10277000823809F076C08091EA028F70873008F0C5
:1027800070C08093E9008091EB0085FB882780F979
:102790001092E90006C08091E2029091E30291114B
:1027A00082609091E800977F9093E8008093F10019
:1027B0001092F1008091E8008E77B8C1882309F467
:1027C000A5C1823009F04DC08091E8028111A9C1F4
:1027D0008091EA028F702FEF280F263008F041C059
:1027E0008093E9002091EB0020FF9BC1933031F4EE
:1027F0008091EB0080628093EB0093C19091EB009D
:1028000090619093EB0021E030E001C0220F8A95A7
:10281000EAF72093EA001092EA008091EB008860CA
:10282000EACF81111EC01091E8021F778091E3006A
:102830008078812B8093E3008091E800877F8093EC
:10284000E8000E9447048091E80080FFFCCF80915F
:10285000E30080688093E30082E0111183E08093BD
:10286000E4028091E80083FF0AC08091E800877F3E
:102870008093E8008091EB0080628093EB00AA9641
:10288000E3E00C940F268058823058F72091E8023C
:102890003091E9022C3DE3E03E07A1F583E08A8315
:1028A0008AE289834FB7F894DE01139620E03EE078
:1028B00051E2E32FF0E050935700E49120FF03C072
:1028C000E295EF703F5FEF708E2F90E0EA30C0F03E
:1028D000C7968D939D932F5F243159F74FBF8091F9
:1028E000E800877F8093E8006AE270E0CE010196FD
:1028F0000E94F2048091E8008B778093E800B1CFCA
:10290000C096E7CF8091EA029091EB02432F5527C2
:102910004330510509F44AC078F54130510509F4B6
:102920007AC08BE590E0E1EAF6E04230510509F02B
:1029300098CF2091E800277F2093E8002091EC02B7
:102940003091ED028217930708F49C0140E02115B5
:10295000310509F065C0411163C08091E80082FD36
:10296000C9CF8091E402882329F2853019F2809141
:10297000E80083FFF2CFBECF4132510509F43CC0DD
:102980004232510509F06DCF8330910508F069CFCF
:10299000FC01EE0FFF1FE657FE4F0190F081E02D86
:1029A00089579E4FDC018C9190E01AC0332721306B
:1029B0003105D1F02115310561F02230310509F0E2
:1029C00050CFEEE0F7E0E4918E2F90E0EEE0F7E0FC
:1029D00007C0EAE3F7E0E4918E2F90E0EAE3F7E046
:1029E000009709F43ECFA5CFEEE2F7E0E4918E2FF9
:1029F00090E0EEE2F7E0F4CF8330910508F031CFBC
:102A0000880F991FFC01E057FE4F0190F081E02DE7
:102A100089E090E08ECF82E190E0ECEFF6E089CFA4
:102A20008091E402882309F465CF853009F462CFF0
:102A30008091E80083FD5ECF8091E80082FD8DCF1C
:102A40008091E80080FF83CF9091F3008091F200A5
:102A50002115310519F08830910550F041E00897B3
:102A600009F040E08091E8008E778093E8006FCF16
:102A700044914093F1003196215031090196E8CFFD
:102A8000803809F0EECE8091E800877F8093E800DF
:102A90008091E5028093F1008DCE8111E2CE1091FC
:102AA000E802123008F0DDCE8091E800877F809345
:102AB000E8001093E5020E944704112311F084E01E
:102AC00005C08091E30087FDFACF81E08093E402A6
:102AD00042E061EC81E00E94660442E261EC84E045
:102AE0000E94660442E261EC82E00E94660442E2D7
:102AF00060EC83E00E9466048091E402843021F05F
:102B000081E080932201ADCE82E0FBCF8091E8028C
:102B1000813009F0A6CE81E0933009F080E0809307
:102B2000E3021092E9008091E800877F8093E8003B
:102B30000E94470496CEEBEFE80FEF3308F067C032
:102B4000F0E0EA57F84D0C94CB2537DC81E008958E
:102B50008091CB02807F8093CB0281E08093CA0278
:102B6000089500DD2FEF84E39CE0215080409040E9
:102B7000E1F700C000007CD99091CB02892F8E7FB5
:102B800090FF81608093CB0280FDE0CF817F8093B6
:102B9000CB02DCCF9091CB02892F8D7F91FF826099
:102BA0008093CB0281FFD2CF8091CB028160EFCFA7
:102BB0009091CB02892F8B7F92FF84608093CB0210
:102BC00082FDF2CFC3CF9091CB02892F877F93FFF5
:102BD00088608093CB0283FDE7CFB8CFC3DC9091B0
:102BE000D202892F97FB87F980588093D202AECF0B
:102BF00081E00E94B40BB6DCA9CF895391E001C0FB
:102C0000990F8A95EAF7892FF4CF8D51F7CF80E09D
:102C10000895CF93C82F8823C9F18CEF8C0F813A88
:102C200008F05AC08091CA02882341F1813081F1B5
:102C30001092CA0280912101813009F03EC080913A
:102C4000D20287FF3AC0EC2FE695E695E695F0E0D4
:102C5000E056FE4F828190E04C2F477021E030E03B
:102C600002C0220F331F4A95E2F782239323892B58
:102C700071F18C2F0E946105EDDB29C08091120259
:102C80008232C1F68C2F57DF8823A1F2CF910895AD
:102C9000809112028232B1F3C43161F028F4CB305A
:102CA00039F080E08170F0CFC93221F0C833C9F724
:102CB00081E0F8CF1092CA02F4CFEAE9F1E080EAAD
:102CC00091E02191C217A9F28E179F07D1F78C2F9F
:102CD0000E948C05BFDBDACF80E28C0F883068F46D
:102CE000C77021E030E001C0220FCA95EAF7809159
:102CF0001202822B80931202EDCFEBE5EC0FE33052
:102D000040F4F0E0ED5DFE4F808190E00E94E70529
:102D1000BDCFC85ACB3108F0B9CFEC2FF0E0EE0FA1
:102D2000FF1FEA5DFE4F808191810E94C005AECFFA
:102D300019DC2FEF84E39CE0215080409040E1F7C4
:102D400000C0000088E19CE00FB6F894A89580933D
:102D500060000FBE90936000FFCF1F93CF93DF936F
:102D6000182FEB0156DF209731F4812FD5DBDF914F
:102D7000CF911F9108958FE99FE00197F1F700C06F
:102D800000002197F0CFEF92FF920F931F93CF9304
:102D9000DF93C62FD42F022FFC0185818823A1F059
:102DA00060932A030E94520590932903809328037D
:102DB000C77081E001C0880FCA95EAF7A4DBCDB7E0
:102DC000DEB7E6E00C940C2680912A03681332C02B
:102DD000E0902803F09029030E9452058E199F0964
:102DE000883C910538F510E21D0FCD17A9F080E25F
:102DF0008C0F883038F4C77081E001C0880FCA9505
:102E0000EAF77CDB183040F481E09D2F977001C019
:102E1000880F9A95EAF777DB70E060E0802F9DDFFE
:102E2000183068F6D77081E001C0880FDA95EAF7AC
:102E300065DBC5CFC77081E001C0880FCA95EAF78E
:102E4000F7CFA4E0B0E0E7E2F7E10C94EA256C01EB
:102E5000FC018481882309F489C061E0C6010E94D5
:102E6000900E8C01F6019581992309F485C598018E
:102E700037572038310508F0E6C0003108F067C048
:102E80006EE771E080E090E00E94D10D81115FC09B
:102E9000812C912C5401011122C089829A82AB822B
:102EA000BC824AE0842ECE0101960E94DE0D88236A
:102EB00009F44DC0813009F073C0CE0101960E9423
:102EC000DE0D813001F5CE0101960E94DE0D70E02D
:102ED00060E0893311F460E570E03FDFE4CFFFE7A5
:102EE0008F16F1E09F06A104B10489F1C501B40178
:102EF0000E94D10D811101C001502FEF821A920A58
:102F0000A20AB20AC8CF823031F4CE0101960E94E3
:102F1000DE0D7FDEC8CF833031F4CE0101960E94F2
:102F2000DE0DFADAC0CF843081F4CE0101960E9422
:102F3000DE0D10E000E0482F4053550B9A014A3057
:102F40005105C0F00115110511F58111ACCF80912B
:102F5000E701877059F0F6018581882339F0809167
:102F6000D30282FF03C082E00E94940B2496ECE01F
:102F70000C940626809EC001819E900D112489012B
:102F8000080F191FCE0101960E94DE0DD4CFEFE984
:102F9000FFE03197F1F700C0000001501109D2CFD6
:102FA000E82FF0E0E155FE4F9490282F26952695C6
:102FB000269530E0F901E156FE4FE4908770F12C40
:102FC000082E02C0F594E7940A94E2F7F1E0EF22AC
:102FD000FF24F901E157FE4FA490B12C082E02C046
:102FE000B594A7940A94E2F741E0A422BB24F90126
:102FF000E158FE4F049110E002C0159507958A959F
:10300000E2F701701127E114F10411F081EE01DE05
:10301000A114B10411F086EEFCDD70E060E0892DB2
:103020009CDEA114B10411F086EE76DAE114F1040D
:1030300011F081EE71DA0115110509F434CF70E059
:1030400060E08CE24ACF023058E7150709F46EC001
:10305000A0F40115E8E71E0779F180E00130F8E7F8
:103060001F0759F1F801E851FC47E730F10508F076
:1030700087C0EB53F84D0C94CB25043028E712079A
:1030800009F440C008F1053048E7140759F790915A
:103090009602892F8695869586958F5F8F7197709A
:1030A000843008F04DC0880F880F880F892B8093DB
:1030B00096028091960210C083E00E94CA0B86E9B6
:1030C00092E00E94470D43CF80919602982F987FFF
:1030D00089F0885080939602887F91E009F490E00F
:1030E0008091960290FB80F98093960286E992E0A7
:1030F0000E94470D809196028695869586950E943E
:10310000B70B25CF80919602982F96959695969518
:10311000933040F49F5F990F990F990F8770892B17
:1031200080939602809196028160DECF8091960214
:1031300080FF03C00E944D0D0ACF0E945A0D07CF99
:1031400090939602B6CF26E241EE61EEC6011BDEF9
:10315000FECE27E245EE65EEF9CF26E241EE60EEC7
:10316000F5CF27E245EE64EEF1CF26E241EE62EEC6
:10317000EDCF27E245EE66EEE9CF28E241E0EBCF66
:1031800010922A03980130572332310508F0C8C342
:1031900084E090E00E94CD269093D3028093D202E7
:1031A000F801E150F047E232F10520F4E453F84D24
:1031B0000C94CB258091D20281608093D20292C080
:1031C0008091D30288608093D3028CC08091D20218
:1031D0008260F3CF8091D2028460EFCF8091D202DF
:1031E0008860EBCF8091D3028160EDCF8091D302D4
:1031F0008260E9CF8091D2028061DFCF8091D202DC
:103200008062DBCF8091D2028064D7CFABD980912E
:10321000D2028068D2CF8091D2028C60CECF8091D2
:10322000D3028360D0CF8091D2028E7FC6CF8091AF
:10323000D302877FC8CF8091D2028D7FBECF80918D
:10324000D2028B7FBACF8091D202877FB6CF809196
:10325000D3028E7FB8CF8091D3028D7FB4CF80917F
:10326000D2028F7EAACF8091D2028F7DA6CF80918D
:10327000D2028F7BA2CF76D98091D2028F779DCF59
:103280008091D202837F99CF8091D3028C7F9BCF94
:103290008091D20282FB992790F921E0922790FB3E
:1032A00082F990FB83F989CF8091D302982F909572
:1032B00091708E7F892B90FB81F985CF9091D202FE
:1032C000892F8F7B96FF806478CF4CD99091D20262
:1032D000892F97FB87F9805870CF61E08EE090E0EE
:1032E0000E94E1266091D2027091D30284E090E0C6
:1032F0000E94FB2637D92BCE60E0F0CF9091D2020E
:10330000892F8F7E94FF806158CF9091D202892FB0
:103310008E7F90FF816051CF9091D302892F877F5C
:1033200093FF886050CF85E30AC385E335C380915E
:103330002B0380FF0CC08E7F80932B038BE293E0E6
:103340000E94010C10923E020E942A0600CE81606B
:1033500080932B0361E0869586950E948E11F7CDB0
:10336000882321F017D8F3CD8823E1F31CD8EFCDC3
:10337000882329F00E94BB0CEACD8823D9F30E9450
:10338000C30CE5CD882329F00E94A50CE0CD88234D
:10339000D9F30E94B00CDBCD882329F00E948F0C5A
:1033A000D6CD8823D9F30E949A0CD1CD882329F059
:1033B0000E94CB0CCCCD8823D9F30E94D50CC7CD6D
:1033C00007375CE71507F9F008378CE7180741F174
:1033D0009801205E32452032310538F5911137C011
:1033E0000F7181E090E0FC0102C0EE0FFF1F0A9513
:1033F000E2F78F016E2F83E090E00E94E126802F9C
:103400000E94B40BA4CD81E00E94AA0B43E062E0CD
:1034100081E00E946B0B9BCD81E00E94890BF6CF6F
:10342000992309F4A7C282E0EFCF992381F00330FA
:10343000FCE71F0709F476C008F05AC001153CE705
:10344000130709F463C001301C4709F471C0F60189
:10345000858100811181882309F477C0C8010E9409
:10346000370EF82E682FC8010E94310BB8018F2D3E
:103470000E942B0E0E94AE098C01882EF601A580B9
:10348000968092943FE093228091E701877009F142
:10349000EA2CAA20F9F0812F807F803469F080E245
:1034A000800F8830B0F0812F807E803229F4F1E0E7
:1034B000F01778F4992069F08091D30282FF09C057
:1034C00082E00E94940B8091E7018770EE24E394E0
:1034D0008111E12CB12EB2942FE0B2222BE02B15FA
:1034E00008F496C0EB2DF0E0E251F84D0C94CB259A
:1034F0000B355CE7150739F10C358CE71807C9F077
:103500000A351C4709F0A3CF81E01AC02BD8EFEF92
:10351000F4E32CE0E150F0402040E1F700C000006F
:103520000E94380F6FEF7FEF90E080E00E94FB2653
:10353000FFDB8091D30282FB882780F991E0892705
:103540000E94141284CF80E0FBCFC8010E94FD0AC4
:10355000F82E8CCF312F3F70F32E107F19F0F2949C
:1035600090EFF922AA20B9F0FF2069F080E2800FE5
:10357000883010F0811009C080911202F82AF09270
:1035800012020E942A12802F42C08091E901F82A7B
:10359000F092E901F6CF802F0E948C12FF20C1F13A
:1035A000005E083010F0811004C08F2D0E94C50A03
:1035B00006C0F0948091E901F822F092E9010E949E
:1035C0002A1226C0412F4F70F42E107F103219F0AE
:1035D000F29480EFF822882051F051E0851609F42A
:1035E0005CC0AA2009F468C0992061F1CCCF809119
:1035F000D30282FD23C0AA20D9F0FF2039F08091A8
:103600001202F82AF09212020E942A1280E001DBD4
:103610002B2D2850330B2430310508F069C10E944E
:103620000E060E94820F60E0C6010E94900E9ECCA2
:1036300080E00E948C12FF2059F3B7CFAA2099F0A6
:10364000911004C08F2D0E948312E2CF81E0981266
:10365000DFCF8091E8019F2D9823F916C9F2F82A4F
:10366000F092E801D5CF9110D3CF8F2D0E947E121A
:103670009091E8018F2D892329F08F2D8095892342
:103680008093E8018091C1019F2D982309F4C0CF58
:10369000F094F822F092C101BBCFAA2029F095E066
:1036A000991508F4B5CFCECFE4E0E91508F4B0CF12
:1036B0008F2D0E947E12ACCF9920D1F3F9E38F12A7
:1036C00009C02FEF37EE43E0215030404040E1F792
:1036D00000C00000802F0E948C129ACF812F869507
:1036E0008695837061F0813009F092CFC8019370A4
:1036F000A11002C080E090E00E94C00589CFC801FF
:103700009370A11002C080E090E00E94E70580CF96
:10371000812F837089F5A1107BCF402F429546956C
:103720004770440F440F802F8F70042E01C0880F04
:103730000A94EAF7202F207104FF07C02FE030E041
:1037400001C0220F4A95EAF7209516951695137039
:10375000123069F050F430911302113029F0822BAD
:1037600083230E94B40B54CF832B822BFACF282BB8
:10377000809113028227F5CF8695AA2011F0812F20
:103780008170882309F444CF402F429546954770B5
:10379000440F440F802F8F70042E01C0880F0A94AD
:1037A000EAF7202F207104FF07C02FE030E001C0AE
:1037B000220F4A95EAF72095169516951370123048
:1037C00069F050F430912002113029F0822B8323CC
:1037D0000E94680B1DCF832B822BFACF282B809160
:1037E00020028227F5CF1F70AA2029F0812F0E9486
:1037F000AA0B802F28CF802F0E947E12812F0E943B
:10380000890B06CF802F52EF8516B1F1581570F055
:1038100090EF8916D1F0E1EF8E1691F0AA2009F40D
:1038200057C09110B0CE812F8F712AC0F3EF8F1641
:1038300051F124EF8212F2CF9091D30292FD2FC06A
:10384000812F8F71AA20D9F21BC0AA2081F034E009
:10385000391508F4DDCE1F7181E090E0012E01C022
:10386000880F0A94EAF7909120028927B1CF45E0AA
:10387000491508F4CDCEEFCF812F8F71A110BFCFA6
:103880000E94AA0BC5CE80E0AA2009F4A1CF1F7127
:1038900081E0012E01C0880F0A94EAF799CFAA208F
:1038A00061F0812F8F7192FFEBCF58E0859F9001DF
:1038B000112423602093E701E3CF81E00E94940B61
:1038C00081E0891508F0A4CE82E00E94940BA0CE7E
:1038D000992059F0893309F0FDCE9FEFE7EEF3E030
:1038E0009150E040F040E1F7F3CE812F8F7187CF08
:1038F000EE2009F498CE8091E70180FD94CEF60188
:1039000015828695869586950E94AA0BC60199DA3E
:103910008091E7018695869586950E94890B83CED6
:10392000809112020631FCE71F0771F48A7A91E058
:1039300009F490E09093C0018111F5CC89E20E94D6
:103940008C050E942A1203CB8272F801E052F847DC
:10395000EB30F10508F034CDE650F84D0C94CB2552
:1039600007373CE7130709F457CD08374CE714072E
:1039700009F02ECD82E051CDF801E851FC47E73047
:10398000F10508F476CB06312CE7120749F7809150
:10399000C0018111CACC89E20E946105D2CFCF93C8
:1039A000DF938091E601807F09F04CC08091E501B2
:1039B000882309F447C0E09127035091EE02C0919B
:1039C000E101D091E0016091E2017091E30147E0F3
:1039D0005E17C1F18E2F90E0E49FF0011124E151B8
:1039E000FD4F2481222389F1489FF001499FF00D6A
:1039F0001124DF01A151BD4F11962C9111972C1369
:103A000024C02C912D1321C015962C9115972111AE
:103A10001CC012962D913C91261B370B283C31057A
:103A2000A0F48091E6018F7080618093E601EB50F5
:103A3000FD4F80818F708061808380EE91E001DA9C
:103A40000E94F30ADF91CF910895FC013196E7704F
:103A5000BFCFA4E1B0E0EFE2FDE10C94EA258C01D8
:103A600086E0F801DE011F9601900D928A95E1F73C
:103A7000F8018481E58090EEA92E91E0B92E909115
:103A8000E401911126C0882309F1EE20E9F0C80174
:103A90000E946E0EF82E8823B9F087E0F801D50158
:103AA00001900D928A95E1F78091E401813031F423
:103AB0008091E0019091E1010E94640E70DF8F2DF2
:103AC0006496ECE00C940626C801BBD9FF24F3945D
:103AD000F6CFD080C18082809380F090E501209164
:103AE000E2013091E301A401421B530BFF2009F4D2
:103AF000D3C0483C510508F08EC0882301F3909153
:103B0000E1018091E601282F207F09F054C0C912FD
:103B100013C09091E001D9120FC0E11046C08F7020
:103B200080618093E60180EE91E08BD98091E6017F
:103B3000F8018683F12CC3CFE11037C06C2D8D2D99
:103B40000E94D8036C2D8D2D0E94D803E82E811180
:103B5000F1CFDF86C88A8F8598890E94640E292F4D
:103B600022952F70243058F49F70223080F09923D2
:103B700091F0F8019681907F71F4FE2CA0CF2A5F1E
:103B80002F70223060F0C8015CD9EF2CF6CF99235A
:103B900011F0882391F3805E883078F3F4CF803F72
:103BA00060F3815F833078F7E8CF8091E601816030
:103BB0008093E601BFCFC91207C09091E001D912EE
:103BC00003C0EE2009F489C0C8010E946E0E88234C
:103BD00009F47ACFEE2009F477CF8091E6018032A4
:103BE00080F02091E0013091E101398728879B86A0
:103BF0008A869091E4019C871D868E87CE01089667
:103C000020D987E0F801A0EEB1E001900D928A95ED
:103C1000E1F7C5DE5BCF9091E601292F207F49F4C3
:103C200080EE91E00ED987E0F50111928A95E9F7CF
:103C300081CF882309F443CF8091E1018C110FC01B
:103C40008091E001D8120BC0E11009C09683C80131
:103C5000F8D887E0F50111928A95E9F730CFC801CD
:103C60000E946E0E882309F42FCFEE2009F42CCF8A
:103C70008091E601803228F22091E0013091E1014B
:103C80003A8329839C828B829091E4019D831E82DA
:103C90008F83CE010196B4CF483C5105D0F68823DE
:103CA00009F414CFFE2CEE2009F40ECF8091E1012F
:103CB0008C111FC08091E001D8121BC08091E601D9
:103CC00080FD0EC0982F907F59F08683903F31F091
:103CD000982F907F905F8F70892B8683C801B1D811
:103CE00087E0F801A0EEB1E001900D928A95E1F72E
:103CF000E6CEC8010E946E0E811183CF8091E6014D
:103D000081608093E601C8019CD8D9CEABE1B0E0D8
:103D1000EBE8FEE168C74E8B5F8B688F798F8A8FE7
:103D20009B8F91111092E9011D8A86E0FE01769623
:103D3000DE011F9601900D928A95E1F78B89882309
:103D400051F061E0CE010F960E94900E61E0CE012D
:103D50000F960E94900E87E0FE013F96DE011896B6
:103D600001900D928A95E1F7CE01089672DE8111DD
:103D70000CC087E0FE013896DE01119601900D928D
:103D80008A95E1F78C8581110AC017E0809127039D
:103D90009091EE02891330C06B96E3E040C720910A
:103DA000EE0230E0C9010196877099274091270300
:103DB0004817190699F097E0929FD001939FB00D94
:103DC0001124A151BD4FFE01319601900D929A959B
:103DD000E1F78093EE020E94F30AD7CF0E94B2125D
:103DE0001092EE021092270387E0E0EEF1E0DF018F
:103DF0001D928A95E9F7C9CF819FC0011124815195
:103E00009D4F27DE882341F28091270390E00196A1
:103E10008770992780932703B9CFA6E0B0E0E2E14D
:103E2000FFE1E0C60E9452058C018091140290913E
:103E300015028017910779F019821A820E945205A3
:103E4000682F49815A81792F80E090E05FDF1093DD
:103E50001502009314022696E4E0E0C61F920F922A
:103E60000FB60F9211242F933F934F935F936F934D
:103E70007F938F939F93AF93BF93CF93DF93EF93F2
:103E8000FF93D091E900DF708091EC00C82FC170E2
:103E900080FDC0E81092E9008091F000877F809358
:103EA000F00078940E94D2121092E9008091F00004
:103EB00088608093F000CD2BCF70C093E900FF9114
:103EC000EF91DF91CF91BF91AF919F918F917F91B2
:103ED0006F915F914F913F912F910F900FBE0F9077
:103EE0001F9018951F920F920FB60F9211242F93C7
:103EF0003F934F935F936F937F938F939F93AF9372
:103F0000BF93EF93FF938091E10082FF09C08091FE
:103F1000E20082FF05C08091E1008B7F8093E10089
:103F20008091DA0080FF24C08091D80080FF20C0FB
:103F30008091DA008E7F8093DA008091D90080FF33
:103F4000AAC080E189BD82E189BD09B400FEFDCF30
:103F500081E08093E4028091D902811109C00E941E
:103F6000F7030E9498048091E20084608093E2004D
:103F70008091E10080FF1AC08091E20080FF16C0AE
:103F80008091E2008E7F8093E2008091E200806168
:103F90008093E2008091D80080628093D80019BCA1
:103FA00085E08093E40283E0809322018091E10028
:103FB00084FF30C08091E20084FF2CC080E189BD85
:103FC00082E189BD99B5892F817090FFFBCF9091D7
:103FD000D8009F7D9093D8009091E1009F7E9093B0
:103FE000E1009091E2009F7E9093E2009091E200C8
:103FF00091609093E2009091E502992309F451C0F9
:1040000094E09093E4029091E402943009F482E009
:10401000809322018091E10083FF2CC08091E20017
:1040200083FF28C08091E100877F8093E10082E0D8
:104030008093E4021092E5028091E1008E7F8093EC
:10404000E1008091E2008E7F8093E2008091E200A7
:1040500080618093E20042E060E080E00E946604BC
:104060008091F00088608093F00081E080932201CD
:1040700080932101FF91EF91BF91AF919F918F911B
:104080007F916F915F914F913F912F910F900FBE54
:104090000F901F90189519BC1092E4021092D9024B
:1040A00067CF9091E30097FD02C0982FAACF93E0CD
:1040B000A8CF78941F921FB61F9211248F939F93BD
:1040C000AF93BF938091D5029091D602A091D70271
:1040D000B091D8020196A11DB11D8093D502909395
:1040E000D602A093D702B093D802BF91AF919F910F
:1040F0008F911F901FBE1F9018951F921FB61F9281
:1041000011248F939F93AF93BF938091D402811119
:1041100013C08091D5029091D602A091D702B091A0
:10412000D8024196A11DB11D8093D5029093D6026D
:10413000A093D702B093D802BF91AF919F918F9176
:104140001F901FBE1F901895CDB7DEB7A6970FB66C
:10415000F894DEBF0FBECDBF85B7806885BF85B739
:10416000806885BF84B7877F84BF0FB6F894A89511
:1041700080916000886180936000109260000FBEA3
:1041800080E890E00FB6F89480936100909361000E
:104190000FBE81E0809322018BEB98E09093970112
:1041A000809396010E94F7030E9498048091E20098
:1041B00084608093E20078948091E4028823A1F0E7
:1041C0001091E9001F709091EC00892F817090FD93
:1041D00080E8182B1092E9008091E80083FD0E948E
:1041E000D2121F701093E90082E084BD93E095BD68
:1041F0009AEF97BD80936E000E94B20D811102C0AC
:104200000E94D7100E94EE0B0E94DF0B8AB1807DC6
:104210008AB98BB1807D8BB96A98729A10922E02FE
:1042200010922D0210921702109216021092300274
:1042300010922F021092190210921802109232025C
:104240001092310210921B0210921A021092340244
:104250001092330210921D0210921C02109236022C
:104260001092350210921F0210921E0290E080E020
:1042700094D5833E9E4F21F40E94B20D811102C05D
:104280000E94DD1182E090E07BD58093CB0284E038
:1042900090E083D59093D3028093D2020E94B80F0E
:1042A0004FEF86E791E0415080409040E1F700C039
:1042B00000000E94B80F809135029091360292FF63
:1042C00007C06FEF7FEF90E080E095D50E94380F38
:1042D00083E090E055D50E94B40B0E94EE0B0E9443
:1042E000B70E80912102811120C08BE293E00E94E1
:1042F000700D80912B038C7F31F40E94DF0C8BE2D8
:1043000093E00E94700D0E94770610923E020E9478
:10431000280680912B0380FF05C060E08695869576
:104320000E948E1181E08093210285E091E09093BC
:10433000CF028093CE0267E3262E62E0362E809174
:10434000E40210E4853009F498C00E94B80F42E2FC
:10435000A42E42E0B42E5DE2852E52E0952ED401CB
:10436000F501219131918D919D9142E0EC32F4075C
:1043700009F491C028173907A1F3712CF4010191B8
:1043800011914F01F501C190D1905F01C016D10686
:1043900059F1C026D126612CEE24E394F12CC701FB
:1043A0008C219D21892BB1F069A27AA20E9452052D
:1043B0009CA38BA3F1E0FDA391E09701202331237F
:1043C000232B09F490E09EA349A15AA16BA17CA1E3
:1043D0008DA19CDC6394EE0CFF1C2FE06212DFCFFA
:1043E000F501329711830083739445E07412C6CFB0
:1043F0008FB7F8944091D5025091D6026091D702C0
:104400007091D8028FBF4CC08091E402843049F192
:1044100080E00E94CA0B80E00E94820F1092D402BA
:10442000E8E1F0E00FB6F894A895E09360000FBEC5
:104430001093600083B7817F846083BF83B78160FE
:1044400083BF7894889583B78E7F83BF0FB6F89427
:10445000A895809160008861809360001092600050
:104460000FBE0E94B80FEDE2F2E081919191892B8D
:1044700009F02CC32E163F06C1F78091E402853067
:1044800009F4C2CF0E94B2120E94B70E0E940E061B
:104490000E94820F5ACF2817390709F06ECFBDDC72
:1044A00080913E028823D9F180913D02E0912B0357
:1044B000E695E695E81BE0933902823009F06DC07D
:1044C000F0E0E05CFD4FE4910E2F10E098EAE92E59
:1044D00098E0F92E80913A02882361F010923A0216
:1044E0000E945205909338028093370210923C024A
:1044F00010923B020E945205E0913702F09138027F
:104500008E1B9F0B8F3F9F4750F4E00FF11FF093DE
:104510003802E093370287E392E0F70109950E94A1
:104520000E0690912C02891779F080932C029FB788
:10453000F8944091D5025091D6026091D7027091C3
:10454000D8029FBF0E94820F8091E402843009F05C
:10455000F6CE83E08093E9008091E80082FFEFCE01
:104560008091E80090E085FF06C00E941604882331
:1045700009F47EC091E08091E8008B778093E80099
:10458000992309F4DCCE8981EFEFE80FE33108F0DD
:1045900096C0F0E0EB5FF74DFEC2863059F4F0E0D4
:1045A000E35CFD4FE4910E2F10E089E9E82E88E0EE
:1045B000F82E90CF893061F4E695F0E0E65CFD4F8F
:1045C000E4910E2F10E0B5E6EB2EB8E0FB2E82CF83
:1045D0008F3061F4E695F0E0E95CFD4FE4910E2F39
:1045E00010E0A7E0EA2EA8E0FA2E74CF853159F446
:1045F000F0E0EC5CFD4FE4910E2F10E0FFEBEF2EAE
:10460000F7E0FF2E67CF08E210E069E4E62E67E0EE
:10461000F62E883109F45ECF833249F4E2E3F2E00A
:1046200005911491EDE5EE2EE6E0FE2E53CF04EF5A
:1046300011E05DE1E52E57E0F52E843209F44ACF12
:1046400000ED17E040E5E42E45E0F42E853209F058
:1046500041CF8E2F63E05FD2E92FF0E0E15DFD4FA7
:10466000E4910E2F10E07CEFE72E70E1F72E32CFB1
:1046700000E210E0CE0101967C018091E80085FD0A
:104680000AC08091E8008B778093E8000E941604AE
:10469000882399F36FCF8091F100F70181937F0117
:1046A0000150110951F766CF1A828CE08B8323C029
:1046B0008A81823009F427C228F4813061F08FEFBB
:1046C000898319C0833049F18430C9F71B821C8269
:1046D0001D821E8210C02FB7F8946091D502709190
:1046E000D6028091D7029091D8022FBF5AD26B8305
:1046F0007C838D839E83E091CE02F091CF02309730
:1047000009F41DCE0284F385E02D309709F417CE0D
:1047100060E2CE010196099512CE2B81822F90E0A6
:10472000FE013196225F8530910528F7DC01AA0F42
:10473000BB1FA35DBD4F3C9111964C9143833483C5
:10474000019632962813EFCFD6CF8A818230B9F006
:10475000853009F0B4CF8091960280FF19C00E9485
:104760004D0D80912B0380FF16C080912B038E7F0F
:1047700080932B0310923E020E942A06BCCF6B81CD
:104780007C818D819E810DD288E290E01AD3B3CFD7
:104790000E945A0DE6CF816080932B0360E08695DE
:1047A00086950E948E11A7CF4C816B818A810E94D1
:1047B000FC0D9827892798279E838D839CCF2D8178
:1047C0003E813227232732274C816B818A810E94C8
:1047D000EA0C91CF0E94100D8ECF9A81913079F51D
:1047E000883091F0893031F18B81813009F083CFAD
:1047F0008C81F3E08F9FC00111246FEF70E0A4D192
:10480000862F0E94CA0B77CF8B81813029F08230AE
:1048100009F071CF1C826FCF8091960286958695A4
:1048200086952FEF829FC001112463E070E08CD148
:104830006C8361CF86E992E00E94470D5CCF923095
:1048400009F03DCF8830D9F1893009F461C08B81FE
:10485000823001F1A0F4813009F04DCF8C814FEF0F
:10486000849FC00111246FEF70E06ED1462F20E0CD
:1048700060912D0380912C030E94220C3CCF833049
:10488000D1F0843009F037CF20E040912E036D81C4
:104890008C81F2CF8C81882309F467CF80912B0320
:1048A000816080932B0360E0869586950E948E112F
:1048B00060E08C8176CF8C8180932F031CCF8B811D
:1048C0008230C9F060F4813009F015CF80912E0359
:1048D000EFEF8E9FC00111246FEF70E0A8CF8330FF
:1048E000A1F0843009F007CF80912C038C83809154
:1048F0002D038D8300CF80912B0380FF04C086950C
:1049000086958C83F8CE80E0FCCF80912F03F9CF81
:104910000E9477068BE293E00E94010CECCEF0E15E
:10492000FA83E9CE21E02A838FE7C0CECA80DB80FC
:10493000DC24CD24DC248C80912CB12CA12C2601EC
:10494000712C612C4FE7C41A4DEFD40ACE010196A9
:104950007C0110E000E0C601800F911FA80170E00B
:1049600060E0481559056A057B0508F0C4CE440D82
:10497000551D661D771D4F3751406105710548F47F
:10498000FFD1F70184830F5F1F4FFFEFEF1AFF0A7C
:10499000E2CFF7011482F7CF0A811B81102701278C
:1049A00010278C80912CB12CA12C2801712C612C0A
:1049B0000F571D4FF12CE12CC8018E0D9F1DA70133
:1049C00070E060E0481559056A057B0508F093CE54
:1049D000440D551D661D771D4F375140610571050A
:1049E00040F4E1E0F0E0EC0FFD1FEE0DFF1D6481EF
:1049F000E8D14FEFE41AF40ADFCF0E949B107BCE80
:104A000084E08A8378CE8C80912CB12CA12CCA8032
:104A1000DB80DC24CD24DC24F12CE12C8E010F5F23
:104A20001F4F412C512C3201C6018996481459045C
:104A30006A047B0408F05FCEE8E5CE16E2E0DE060D
:104A4000E104F10480F49CD1F8018483FFEF4F1A54
:104A50005F0A6F0A7F0A0F5F1F4F2FEFC21AD20A39
:104A6000E20AF20AE1CFF8011482F0CF8C80912C97
:104A7000B12CA12CCA80DB80DC24CD24DC24F12CD9
:104A8000E12C412C512C3201C6018996481459045D
:104A90006A047B0408F02FCE48E5C41642E0D40631
:104AA000E104F10440F4E1E0F0E0EC0FFD1FE40D5F
:104AB000F51D648186D18FEF481A580A680A780A72
:104AC0009FEFC91AD90AE90AF90ADECF8091E302F9
:104AD000882309F4D2CCF0E1F9BD22E129BD09B463
:104AE00000FEFDCF8091D8008F7D8093D80080910B
:104AF000E00082608093E0008091E00081FDFCCFC7
:104B00000E94B212BACC88E290E03AD11B821C8299
:104B10001D828E83F0CD991B79E004C0991F9617F2
:104B200008F0961B881F7A95C9F78095089587FB32
:104B3000082E062687FD819567FD6195ECDF0EF452
:104B4000919507FC81950895AA1BBB1B51E107C0F5
:104B5000AA1FBB1FA617B70710F0A61BB70B881F0D
:104B6000991F5A95A9F780959095BC01CD0108959C
:104B700097FB072E16F4009406D077FD08D0E4DFEB
:104B800007FC05D03EF4909581959F4F0895709550
:104B900061957F4F0895EE0FFF1F0590F491E02D72
:104BA0000994692796276927782787277827089502
:104BB00084D1332312F48A1B9B0B01C07ED1B7FF33
:104BC0000895821B930B08952F923F924F925F920C
:104BD0006F927F928F929F92AF92BF92CF92DF920D
:104BE000EF92FF920F931F93CF93DF93CDB7DEB772
:104BF000CA1BDB0B0FB6F894DEBF0FBECDBF099406
:104C00002A88398848885F846E847D848C849B845C
:104C1000AA84B984C884DF80EE80FD800C811B816A
:104C2000AA81B981CE0FD11D0FB6F894DEBF0FBE99
:104C3000CDBFED010895002E083090F0982F872FFA
:104C4000762F652F542F432F322F22270850F4CF71
:104C5000220F331F441F551F661F771F881F991F80
:104C60000A95B2F7002D089597FD1094002E083094
:104C700098F00850232F342F452F562F672F782F69
:104C8000892F912DF4CF15949795879577956795F2
:104C900057954795379527950A95AAF71124002D22
:104CA00008958F929F92AF92BF92CF92DF92EF9230
:104CB000FF92CF93DF93EC01688179818A819B8198
:104CC000611571058105910521F464E279ED8BE5AB
:104CD00097E02DE133EF41E050E0A1D049015A01C6
:104CE0009B01AC01A7EAB1E4B6D06B017C01ACEE4C
:104CF000B4EFA5019401BBD0DC01CB018C0D9D1D4F
:104D0000AE1DBF1DB7FF03C00197A109B04888833E
:104D10009983AA83BB839F77DF91CF91FF90EF9018
:104D2000DF90CF90BF90AF909F908F900895B9CFB4
:104D300080E091E0B6CFB0E0A0E0809300019093D6
:104D40000101A0930201B09303010895FC014150B9
:104D5000504030F001900616D1F73197CF010895F9
:104D6000882799270895FB01DC0104C08D910190EB
:104D7000801921F441505040C8F7881B990B0895C1
:104D8000F999FECF92BD81BDF89A992780B5089513
:104D9000A6E1B0E044E050E034C0A8E1B0E042E079
:104DA00050E02FC0DC01A40FB51F4150504040F02F
:104DB000CB01840F951F2E9105D041505040D8F75C
:104DC0000895262FF999FECF92BD81BDF89A0197DB
:104DD00000B4021639F01FBA20BD0FB6F894FA9A43
:104DE000F99A0FBE08950396272FECDFEADF252FEF
:104DF000E9DF242FE7CF0196272FE4DFE2CFDC01A4
:104E0000CB01FC01F999FECF06C0F2BDE1BDF89AD5
:104E1000319600B40D9241505040B8F70895052ED8
:104E200097FB16F400940FD057FD05D024D007FC53
:104E300002D046F408C050954095309521953F4FDB
:104E40004F4F5F4F089590958095709561957F4F76
:104E50008F4F9F4F089531D0A59F900DB49F900D17
:104E6000A49F800D911D11240895B7FFF4CFF3DFA7
:104E7000821B930B0895A1E21A2EAA1BBB1BFD01F6
:104E80000DC0AA1FBB1FEE1FFF1FA217B307E40729
:104E9000F50720F0A21BB30BE40BF50B661F771F81
:104EA000881F991F1A9469F7609570958095909561
:104EB0009B01AC01BD01CF010895A29FB001B39F3A
:104EC000C001A39F700D811D1124911DB29F700D13
:104ED000811D1124911D0895F894FFCF42104510B3
:104EE00048104D105110551059105D105F10611091
:104EF0006310651068106B10B613DE133114DE13E7
:104F0000311411144314311440154D15B115A81561
:104F1000BC15A61507160716A61507160716D815E9
:104F20000716E315EE150716071607160716A6153A
:104F300007160716A6150716CA150716071605162B
:104F40000516051605160516051605160516051689
:104F5000F8150716B115A515071607160716071633
:104F6000071607160716071607160716F815071669
:104F70000716A6150716FD15FD15FD15FD15FD15E2
:104F8000FD15FD15FD15FD15F815AD18B118A31883
:104F9000A918B518B918BD18131985191B19E618E1
:104FA000EA181F19EE1823192F19FA187E19FE187E
:104FB0003319021937195E1906193B1965190B19AE
:104FC00040194819F2182719F6182B190F19441906
:104FD00054196D197C19E01817198C19AA1AAA1AF4
:104FE000E21AE21A6E1B081B081B081B881BF31B26
:104FF000021C021C9719B019B419B819BD19C219AD
:10500000C719CC19D119D619DB1954235823A52354
:10501000D423DF23EA23ED23ED23ED235F235F2356
:105020008F2492249624CC24FD24002503253625A4
:1050300001000000055E051D0F180F5105130F300C
:105040000F01191A1B1C1D1E1F2021220102010025
:10505000000100818283E200E900EA00B500B600A9
:10506000B700CD008301CC008A0192019401210296
:10507000230224022502260227022A02B300B400DA
:105080006F0070009F01CB019F02A002000102028D
:1050900002020606060909090909090F0F0F0F0F79
:1050A0000F1515151819191919191919191919237D
:1050B0002425252525252544226D3B011901AC0019
:0650C000B306CC06EC066D
:00000001FF
